:100000000C9434000C9438010C9451000C94510061
:100010000C9451000C9451000C9451000C9451001C
:100020000C9451000C9451000C9451000C9451000C
:100030000C9451000C9451000C9451000C945100FC
:100040000C9451000C9451000C9451000C945100EC
:100050000C9451000C9451000C9451000C945100DC
:100060000C9451000C94510011241FBECFEFD8E026
:10007000DEBFCDBF11E0A0E0B1E0E0E9F4E002C0F6
:1000800005900D92A230B107D9F711E0A2E0B1E0DE
:1000900001C01D92A730B107E1F70E942F010C9417
:1000A00046020C940000DF93CF93CDB7DEB7A4E2F5
:1000B000B0E0E4E2F0E0808181608C93AAE2B0E0FD
:1000C000EAE2F0E0808188668C93AAE2B0E0EAE29E
:1000D000F0E080818B7F8C93E5E2F0E01082EBE230
:1000E000F0E01082CF91DF910895DF93CF930F92CC
:1000F000CDB7DEB719820E9453000E94D501EDE30F
:10010000F0E081E08083E9E6F0E01082A9E6B0E06B
:10011000E9E6F0E0808182608C93198219C0A5E243
:10012000B0E0E5E2F0E0808181608C9384E690E0CD
:100130000E949601A5E2B0E0E5E2F0E080818E7FCA
:100140008C9384E690E00E94960189818F5F898379
:1001500089818A3020F319820BC080E069810E9476
:10016000160285E090E00E94960189818F5F898365
:1001700089818F3F91F78FEF89830BC080E0698180
:100180000E94160285E090E00E94960189818150CC
:1001900089838981882391F719820BC081E0698165
:1001A0000E94160285E090E00E94960189818F5F8F
:1001B000898389818F3F91F78FEF89830BC081E01D
:1001C00069810E94160285E090E00E949601898173
:1001D000815089838981882391F719820BC082E03D
:1001E00069810E94160285E090E00E949601898153
:1001F0008F5F898389818F3F91F78FEF89830BC050
:1002000082E069810E94160285E090E00E949601DA
:100210008981815089838981882391F7198213C04C
:1002200081E06FEF0E94160288EC90E00E94960138
:1002300081E060E00E94160288EC90E00E94960146
:1002400089818F5F89838981873050F388EE93E0BD
:100250000E94960178940F90CF91DF910895DF93DB
:10026000CF930F92CDB7DEB719820E947500FFCFF2
:100270001F920F920FB60F9211242F933F934F931B
:100280005F936F937F938F939F93AF93BF93EF93FE
:10029000FF93DF93CF93CDB7DEB7809106018F3FF9
:1002A00031F0809106018B5F8093060102C01092AD
:1002B00006019091060182E0692F0E941602CF91FB
:1002C000DF91FF91EF91BF91AF919F918F917F91BE
:1002D0006F915F914F913F912F910F900FBE0F90B3
:1002E0001F9018951F920F920FB60F9211248F93A3
:1002F0009F93AF93BF93EF93FF93DF93CF93CDB7CC
:10030000DEB7A5E2B0E0E5E2F0E0908181E0892788
:100310008C93CF91DF91FF91EF91BF91AF919F911E
:100320008F910F900FBE0F901F901895DF93CF9372
:1003300000D000D0CDB7DEB79C838B831A821982A0
:1003400013C01A82198205C089819A8101969A8305
:10035000898389819A8121E0843F9207ACF38B8164
:100360009C8101979C838B838B819C81009749F7AB
:100370000F900F900F900F90CF91DF910895DF9322
:10038000CF9300D0CDB7DEB79A83898305C089812A
:100390009A8101979A83898389819A810097B9F715
:1003A0000F900F90CF91DF910895DF93CF93CDB74A
:1003B000DEB7A4E4B0E0E4E4F0E0808180688C93F0
:1003C000A4E4B0E0E4E4F0E0808180628C93A4E4F3
:1003D000B0E0E4E4F0E0808183608C93A5E4B0E0D9
:1003E000E5E4F0E0808182608C93A0EBB0E0E0EB8C
:1003F000F0E0808180628C93A0EBB0E0E0EBF0E075
:10040000808183608C93A1EBB0E0E1EBF0E0808130
:1004100082608C93E7E4F0E01082E8E4F0E0108280
:10042000E4EBF0E01082CF91DF910895DF93CF935A
:1004300000D000D0CDB7DEB789836A838981282FA9
:1004400030E03C832B838B819C818130910571F05E
:100450002B813C812230310571F08B819C8100978A
:1004600071F4E7E4F0E08A81808309C0E8E4F0E019
:100470008A81808304C0E4EBF0E08A8180830F905E
:100480000F900F900F90CF91DF910895F894FFCFC8
:0204900010005A
:00000001FF
